{
  "address": "0x5FbDB2315678afecb367f032d93F642f64180aa3",
  "abi": [
    {
      "inputs": [],
      "stateMutability": "nonpayable",
      "type": "constructor"
    },
    {
      "anonymous": false,
      "inputs": [
        {
          "indexed": true,
          "internalType": "address",
          "name": "owner",
          "type": "address"
        },
        {
          "indexed": true,
          "internalType": "address",
          "name": "approved",
          "type": "address"
        },
        {
          "indexed": true,
          "internalType": "uint256",
          "name": "tokenId",
          "type": "uint256"
        }
      ],
      "name": "Approval",
      "type": "event"
    },
    {
      "anonymous": false,
      "inputs": [
        {
          "indexed": true,
          "internalType": "address",
          "name": "owner",
          "type": "address"
        },
        {
          "indexed": true,
          "internalType": "address",
          "name": "operator",
          "type": "address"
        },
        {
          "indexed": false,
          "internalType": "bool",
          "name": "approved",
          "type": "bool"
        }
      ],
      "name": "ApprovalForAll",
      "type": "event"
    },
    {
      "anonymous": false,
      "inputs": [
        {
          "indexed": true,
          "internalType": "address",
          "name": "delegator",
          "type": "address"
        },
        {
          "indexed": true,
          "internalType": "address",
          "name": "fromDelegate",
          "type": "address"
        },
        {
          "indexed": true,
          "internalType": "address",
          "name": "toDelegate",
          "type": "address"
        }
      ],
      "name": "DelegateChanged",
      "type": "event"
    },
    {
      "anonymous": false,
      "inputs": [
        {
          "indexed": true,
          "internalType": "address",
          "name": "delegate",
          "type": "address"
        },
        {
          "indexed": false,
          "internalType": "uint256",
          "name": "previousBalance",
          "type": "uint256"
        },
        {
          "indexed": false,
          "internalType": "uint256",
          "name": "newBalance",
          "type": "uint256"
        }
      ],
      "name": "DelegateVotesChanged",
      "type": "event"
    },
    {
      "anonymous": false,
      "inputs": [
        {
          "indexed": true,
          "internalType": "address",
          "name": "previousOwner",
          "type": "address"
        },
        {
          "indexed": true,
          "internalType": "address",
          "name": "newOwner",
          "type": "address"
        }
      ],
      "name": "OwnershipTransferred",
      "type": "event"
    },
    {
      "anonymous": false,
      "inputs": [
        {
          "indexed": true,
          "internalType": "address",
          "name": "from",
          "type": "address"
        },
        {
          "indexed": true,
          "internalType": "address",
          "name": "to",
          "type": "address"
        },
        {
          "indexed": true,
          "internalType": "uint256",
          "name": "tokenId",
          "type": "uint256"
        }
      ],
      "name": "Transfer",
      "type": "event"
    },
    {
      "inputs": [],
      "name": "DOMAIN_SEPARATOR",
      "outputs": [
        {
          "internalType": "bytes32",
          "name": "",
          "type": "bytes32"
        }
      ],
      "stateMutability": "view",
      "type": "function"
    },
    {
      "inputs": [
        {
          "internalType": "address",
          "name": "to",
          "type": "address"
        },
        {
          "internalType": "uint256",
          "name": "tokenId",
          "type": "uint256"
        }
      ],
      "name": "approve",
      "outputs": [],
      "stateMutability": "nonpayable",
      "type": "function"
    },
    {
      "inputs": [
        {
          "internalType": "address",
          "name": "owner",
          "type": "address"
        }
      ],
      "name": "balanceOf",
      "outputs": [
        {
          "internalType": "uint256",
          "name": "",
          "type": "uint256"
        }
      ],
      "stateMutability": "view",
      "type": "function"
    },
    {
      "inputs": [
        {
          "internalType": "uint256",
          "name": "tokenId",
          "type": "uint256"
        }
      ],
      "name": "burn",
      "outputs": [],
      "stateMutability": "nonpayable",
      "type": "function"
    },
    {
      "inputs": [
        {
          "internalType": "address",
          "name": "delegatee",
          "type": "address"
        }
      ],
      "name": "delegate",
      "outputs": [],
      "stateMutability": "nonpayable",
      "type": "function"
    },
    {
      "inputs": [
        {
          "internalType": "address",
          "name": "delegatee",
          "type": "address"
        },
        {
          "internalType": "uint256",
          "name": "nonce",
          "type": "uint256"
        },
        {
          "internalType": "uint256",
          "name": "expiry",
          "type": "uint256"
        },
        {
          "internalType": "uint8",
          "name": "v",
          "type": "uint8"
        },
        {
          "internalType": "bytes32",
          "name": "r",
          "type": "bytes32"
        },
        {
          "internalType": "bytes32",
          "name": "s",
          "type": "bytes32"
        }
      ],
      "name": "delegateBySig",
      "outputs": [],
      "stateMutability": "nonpayable",
      "type": "function"
    },
    {
      "inputs": [
        {
          "internalType": "address",
          "name": "account",
          "type": "address"
        }
      ],
      "name": "delegates",
      "outputs": [
        {
          "internalType": "address",
          "name": "",
          "type": "address"
        }
      ],
      "stateMutability": "view",
      "type": "function"
    },
    {
      "inputs": [
        {
          "internalType": "uint256",
          "name": "tokenId",
          "type": "uint256"
        }
      ],
      "name": "getApproved",
      "outputs": [
        {
          "internalType": "address",
          "name": "",
          "type": "address"
        }
      ],
      "stateMutability": "view",
      "type": "function"
    },
    {
      "inputs": [
        {
          "internalType": "uint256",
          "name": "blockNumber",
          "type": "uint256"
        }
      ],
      "name": "getPastTotalSupply",
      "outputs": [
        {
          "internalType": "uint256",
          "name": "",
          "type": "uint256"
        }
      ],
      "stateMutability": "view",
      "type": "function"
    },
    {
      "inputs": [
        {
          "internalType": "address",
          "name": "account",
          "type": "address"
        },
        {
          "internalType": "uint256",
          "name": "blockNumber",
          "type": "uint256"
        }
      ],
      "name": "getPastVotes",
      "outputs": [
        {
          "internalType": "uint256",
          "name": "",
          "type": "uint256"
        }
      ],
      "stateMutability": "view",
      "type": "function"
    },
    {
      "inputs": [
        {
          "internalType": "address",
          "name": "account",
          "type": "address"
        }
      ],
      "name": "getVotes",
      "outputs": [
        {
          "internalType": "uint256",
          "name": "",
          "type": "uint256"
        }
      ],
      "stateMutability": "view",
      "type": "function"
    },
    {
      "inputs": [
        {
          "internalType": "address",
          "name": "owner",
          "type": "address"
        },
        {
          "internalType": "address",
          "name": "operator",
          "type": "address"
        }
      ],
      "name": "isApprovedForAll",
      "outputs": [
        {
          "internalType": "bool",
          "name": "",
          "type": "bool"
        }
      ],
      "stateMutability": "view",
      "type": "function"
    },
    {
      "inputs": [],
      "name": "name",
      "outputs": [
        {
          "internalType": "string",
          "name": "",
          "type": "string"
        }
      ],
      "stateMutability": "view",
      "type": "function"
    },
    {
      "inputs": [
        {
          "internalType": "address",
          "name": "owner",
          "type": "address"
        }
      ],
      "name": "nonces",
      "outputs": [
        {
          "internalType": "uint256",
          "name": "",
          "type": "uint256"
        }
      ],
      "stateMutability": "view",
      "type": "function"
    },
    {
      "inputs": [],
      "name": "owner",
      "outputs": [
        {
          "internalType": "address",
          "name": "",
          "type": "address"
        }
      ],
      "stateMutability": "view",
      "type": "function"
    },
    {
      "inputs": [
        {
          "internalType": "uint256",
          "name": "tokenId",
          "type": "uint256"
        }
      ],
      "name": "ownerOf",
      "outputs": [
        {
          "internalType": "address",
          "name": "",
          "type": "address"
        }
      ],
      "stateMutability": "view",
      "type": "function"
    },
    {
      "inputs": [],
      "name": "renounceOwnership",
      "outputs": [],
      "stateMutability": "nonpayable",
      "type": "function"
    },
    {
      "inputs": [
        {
          "internalType": "address",
          "name": "to",
          "type": "address"
        }
      ],
      "name": "safeMint",
      "outputs": [],
      "stateMutability": "nonpayable",
      "type": "function"
    },
    {
      "inputs": [
        {
          "internalType": "address",
          "name": "from",
          "type": "address"
        },
        {
          "internalType": "address",
          "name": "to",
          "type": "address"
        },
        {
          "internalType": "uint256",
          "name": "tokenId",
          "type": "uint256"
        }
      ],
      "name": "safeTransferFrom",
      "outputs": [],
      "stateMutability": "nonpayable",
      "type": "function"
    },
    {
      "inputs": [
        {
          "internalType": "address",
          "name": "from",
          "type": "address"
        },
        {
          "internalType": "address",
          "name": "to",
          "type": "address"
        },
        {
          "internalType": "uint256",
          "name": "tokenId",
          "type": "uint256"
        },
        {
          "internalType": "bytes",
          "name": "_data",
          "type": "bytes"
        }
      ],
      "name": "safeTransferFrom",
      "outputs": [],
      "stateMutability": "nonpayable",
      "type": "function"
    },
    {
      "inputs": [
        {
          "internalType": "address",
          "name": "operator",
          "type": "address"
        },
        {
          "internalType": "bool",
          "name": "approved",
          "type": "bool"
        }
      ],
      "name": "setApprovalForAll",
      "outputs": [],
      "stateMutability": "nonpayable",
      "type": "function"
    },
    {
      "inputs": [
        {
          "internalType": "bytes4",
          "name": "interfaceId",
          "type": "bytes4"
        }
      ],
      "name": "supportsInterface",
      "outputs": [
        {
          "internalType": "bool",
          "name": "",
          "type": "bool"
        }
      ],
      "stateMutability": "view",
      "type": "function"
    },
    {
      "inputs": [],
      "name": "symbol",
      "outputs": [
        {
          "internalType": "string",
          "name": "",
          "type": "string"
        }
      ],
      "stateMutability": "view",
      "type": "function"
    },
    {
      "inputs": [
        {
          "internalType": "uint256",
          "name": "tokenId",
          "type": "uint256"
        }
      ],
      "name": "tokenURI",
      "outputs": [
        {
          "internalType": "string",
          "name": "",
          "type": "string"
        }
      ],
      "stateMutability": "view",
      "type": "function"
    },
    {
      "inputs": [
        {
          "internalType": "address",
          "name": "from",
          "type": "address"
        },
        {
          "internalType": "address",
          "name": "to",
          "type": "address"
        },
        {
          "internalType": "uint256",
          "name": "tokenId",
          "type": "uint256"
        }
      ],
      "name": "transferFrom",
      "outputs": [],
      "stateMutability": "nonpayable",
      "type": "function"
    },
    {
      "inputs": [
        {
          "internalType": "address",
          "name": "newOwner",
          "type": "address"
        }
      ],
      "name": "transferOwnership",
      "outputs": [],
      "stateMutability": "nonpayable",
      "type": "function"
    }
  ],
  "transactionHash": "0x14a7176f905052ac2902e355d3293359c3f826599c13e1e2d5983a761626b182",
  "args": [],
  "numDeployments": 1,
  "solcInputHash": "7e81cc1d10c2b7a872f9f3fe19ddd482",
  "bytecode": "0x6101406040523480156200001257600080fd5b506040518060400160405280600f81526020016e23b7bb32b93730b731b2aa37b5b2b760891b815250604051806040016040528060018152602001603160f81b8152506040518060400160405280600f81526020016e23b7bb32b93730b731b2aa37b5b2b760891b8152506040518060400160405280600481526020016311d3d59560e21b8152508160009080519060200190620000b292919062000b43565b508051620000c890600190602084019062000b43565b505050620000e5620000df6200019760201b60201c565b6200019b565b815160208084019190912082518383012060e08290526101008190524660a0818152604080517f8b73c3c69bb8fe3d512ecc4cf759cc79239f7b179b0ffacaa9a75d522b39400f81880181905281830187905260608201869052608082019490945230818401528151808203909301835260c00190528051940193909320919290916080523060601b60c0526101205250506006546200019192506001600160a01b03169050620001ed565b62000d0a565b3390565b600680546001600160a01b038381166001600160a01b0319831681179093556040519116919082907f8be0079c531659141344cd1fd0a4f28419497f9722a3daafe3b4186f6b6457e090600090a35050565b6006546001600160a01b031633146200024d5760405162461bcd60e51b815260206004820181905260248201527f4f776e61626c653a2063616c6c6572206973206e6f7420746865206f776e657260448201526064015b60405180910390fd5b600062000266600b6200028f60201b62000c9d1760201c565b90506200027f600b6200029360201b62000ca11760201c565b6200028b82826200029c565b5050565b5490565b80546001019055565b6200028b828260405180602001604052806000815250620002be60201b60201c565b620002ca838362000336565b620002d9600084848462000488565b620003315760405162461bcd60e51b815260206004820152603260248201526000805160206200333a83398151915260448201527131b2b4bb32b91034b6b83632b6b2b73a32b960711b606482015260840162000244565b505050565b6001600160a01b0382166200038e5760405162461bcd60e51b815260206004820181905260248201527f4552433732313a206d696e7420746f20746865207a65726f2061646472657373604482015260640162000244565b6000818152600260205260409020546001600160a01b031615620003f55760405162461bcd60e51b815260206004820152601c60248201527f4552433732313a20746f6b656e20616c7265616479206d696e74656400000000604482015260640162000244565b6001600160a01b03821660009081526003602052604081208054600192906200042090849062000c82565b909155505060008181526002602052604080822080546001600160a01b0319166001600160a01b03861690811790915590518392907fddf252ad1be2c89b69c2b068fc378daa952ba7f163c4a11628f55a4df523b3ef908290a46200028b60008383620005f1565b6000620004a9846001600160a01b03166200060960201b62000caa1760201c565b15620005e557604051630a85bd0160e11b81526001600160a01b0385169063150b7a0290620004e390339089908890889060040162000c09565b602060405180830381600087803b158015620004fe57600080fd5b505af192505050801562000531575060408051601f3d908101601f191682019092526200052e9181019062000bdf565b60015b620005ca573d80801562000562576040519150601f19603f3d011682016040523d82523d6000602084013e62000567565b606091505b508051620005c25760405162461bcd60e51b815260206004820152603260248201526000805160206200333a83398151915260448201527131b2b4bb32b91034b6b83632b6b2b73a32b960711b606482015260840162000244565b805181602001fd5b6001600160e01b031916630a85bd0160e11b149050620005e9565b5060015b949350505050565b620003318383836200061860201b62000cb91760201c565b6001600160a01b03163b151590565b62000626838360016200063e565b620003318383836200033160201b6200066e1760201c565b6001600160a01b038316620006785762000675620006e660201b62000cc517826009620006fb60201b62000cd1179092919060201c565b50505b6001600160a01b038216620006b257620006af6200072b60201b62000cff17826009620006fb60201b62000cd1179092919060201c565b50505b6001600160a01b03838116600090815260076020526040808220548584168352912054620003319291821691168362000739565b6000620006f4828462000c82565b9392505050565b6000806200071f856200071962000712826200088a565b868860201c565b620008f9565b91509150935093915050565b6000620006f4828462000c9d565b816001600160a01b0316836001600160a01b0316141580156200075c5750600081115b1562000331576001600160a01b03831615620007f4576001600160a01b038316600090815260086020908152604082208291620007b1919062000cff6200072b821b1790869062000cd1620006fb821b17901c565b91509150846001600160a01b03166000805160206200335a8339815191528383604051620007e9929190918252602082015260400190565b60405180910390a250505b6001600160a01b0382161562000331576001600160a01b03821660009081526008602090815260408220829162000843919062000cc5620006e6821b1790869062000cd1620006fb821b17901c565b91509150836001600160a01b03166000805160206200335a83398151915283836040516200087b929190918252602082015260400190565b60405180910390a25050505050565b80546000908015620008e65782620008a460018362000c9d565b81548110620008c357634e487b7160e01b600052603260045260246000fd5b60009182526020909120015464010000000090046001600160e01b0316620008e9565b60005b6001600160e01b03169392505050565b81546000908190816200090c866200088a565b90506000821180156200095c575043866200092960018562000c9d565b815481106200094857634e487b7160e01b600052603260045260246000fd5b60009182526020909120015463ffffffff16145b15620009dc57620009788562000a6d60201b62000d0b1760201c565b866200098660018562000c9d565b81548110620009a557634e487b7160e01b600052603260045260246000fd5b9060005260206000200160000160046101000a8154816001600160e01b0302191690836001600160e01b0316021790555062000a64565b85600001604051806040016040528062000a014362000adc60201b62000d781760201c565b63ffffffff16815260200162000a228862000a6d60201b62000d0b1760201c565b6001600160e01b0390811690915282546001810184556000938452602093849020835194909301519091166401000000000263ffffffff909316929092179101555b95939450505050565b60006001600160e01b0382111562000ad85760405162461bcd60e51b815260206004820152602760248201527f53616665436173743a2076616c756520646f65736e27742066697420696e20326044820152663234206269747360c81b606482015260840162000244565b5090565b600063ffffffff82111562000ad85760405162461bcd60e51b815260206004820152602660248201527f53616665436173743a2076616c756520646f65736e27742066697420696e203360448201526532206269747360d01b606482015260840162000244565b82805462000b519062000cb7565b90600052602060002090601f01602090048101928262000b75576000855562000bc0565b82601f1062000b9057805160ff191683800117855562000bc0565b8280016001018555821562000bc0579182015b8281111562000bc057825182559160200191906001019062000ba3565b5062000ad89291505b8082111562000ad8576000815560010162000bc9565b60006020828403121562000bf1578081fd5b81516001600160e01b031981168114620006f4578182fd5b600060018060a01b0380871683526020818716818501528560408501526080606085015284519150816080850152825b8281101562000c575785810182015185820160a00152810162000c39565b8281111562000c69578360a084870101525b5050601f01601f19169190910160a00195945050505050565b6000821982111562000c985762000c9862000cf4565b500190565b60008282101562000cb25762000cb262000cf4565b500390565b600181811c9082168062000ccc57607f821691505b6020821081141562000cee57634e487b7160e01b600052602260045260246000fd5b50919050565b634e487b7160e01b600052601160045260246000fd5b60805160a05160c05160601c60e05161010051610120516125dd62000d5d600039600061116e015260006111bd01526000611198015260006110f10152600061111b0152600061114501526125dd6000f3fe608060405234801561001057600080fd5b506004361061018e5760003560e01c806370a08231116100de5780639ab24eb011610097578063c3cda52011610071578063c3cda5201461036a578063c87b56dd1461037d578063e985e9c514610390578063f2fde38b146103cc57600080fd5b80639ab24eb014610331578063a22cb46514610344578063b88d4fde1461035757600080fd5b806370a08231146102d7578063715018a6146102ea5780637ecebe00146102f25780638da5cb5b146103055780638e539e8c1461031657806395d89b411461032957600080fd5b80633a46b1a81161014b57806342966c681161012557806342966c6814610272578063587cde1e146102855780635c19a95c146102b15780636352211e146102c457600080fd5b80633a46b1a81461023957806340d097c31461024c57806342842e0e1461025f57600080fd5b806301ffc9a71461019357806306fdde03146101bb578063081812fc146101d0578063095ea7b3146101fb57806323b872dd146102105780633644e51514610223575b600080fd5b6101a66101a13660046122a9565b6103df565b60405190151581526020015b60405180910390f35b6101c3610431565b6040516101b29190612391565b6101e36101de3660046122e1565b6104c3565b6040516001600160a01b0390911681526020016101b2565b61020e610209366004612222565b61055d565b005b61020e61021e3660046120d8565b610673565b61022b6106a5565b6040519081526020016101b2565b61022b610247366004612222565b6106b4565b61020e61025a36600461208c565b6106dd565b61020e61026d3660046120d8565b610730565b61020e6102803660046122e1565b61074b565b6101e361029336600461208c565b6001600160a01b039081166000908152600760205260409020541690565b61020e6102bf36600461208c565b6107c5565b6101e36102d23660046122e1565b6107d0565b61022b6102e536600461208c565b610847565b61020e6108ce565b61022b61030036600461208c565b610904565b6006546001600160a01b03166101e3565b61022b6103243660046122e1565b610922565b6101c361097e565b61022b61033f36600461208c565b61098d565b61020e6103523660046121e8565b6109ae565b61020e610365366004612113565b6109b9565b61020e61037836600461224b565b6109f1565b6101c361038b3660046122e1565b610b1e565b6101a661039e3660046120a6565b6001600160a01b03918216600090815260056020908152604080832093909416825291909152205460ff1690565b61020e6103da36600461208c565b610c05565b60006001600160e01b031982166380ac58cd60e01b148061041057506001600160e01b03198216635b5e139f60e01b145b8061042b57506301ffc9a760e01b6001600160e01b03198316145b92915050565b606060008054610440906124eb565b80601f016020809104026020016040519081016040528092919081815260200182805461046c906124eb565b80156104b95780601f1061048e576101008083540402835291602001916104b9565b820191906000526020600020905b81548152906001019060200180831161049c57829003601f168201915b5050505050905090565b6000818152600260205260408120546001600160a01b03166105415760405162461bcd60e51b815260206004820152602c60248201527f4552433732313a20617070726f76656420717565727920666f72206e6f6e657860448201526b34b9ba32b73a103a37b5b2b760a11b60648201526084015b60405180910390fd5b506000908152600460205260409020546001600160a01b031690565b6000610568826107d0565b9050806001600160a01b0316836001600160a01b031614156105d65760405162461bcd60e51b815260206004820152602160248201527f4552433732313a20617070726f76616c20746f2063757272656e74206f776e656044820152603960f91b6064820152608401610538565b336001600160a01b03821614806105f257506105f2813361039e565b6106645760405162461bcd60e51b815260206004820152603860248201527f4552433732313a20617070726f76652063616c6c6572206973206e6f74206f7760448201527f6e6572206e6f7220617070726f76656420666f7220616c6c00000000000000006064820152608401610538565b61066e8383610ddd565b505050565b61067e335b82610e4b565b61069a5760405162461bcd60e51b81526004016105389061242b565b61066e838383610f42565b60006106af6110e4565b905090565b6001600160a01b03821660009081526008602052604081206106d6908361120b565b9392505050565b6006546001600160a01b031633146107075760405162461bcd60e51b8152600401610538906123f6565b6000610712600b5490565b9050610722600b80546001019055565b61072c8282611336565b5050565b61066e838383604051806020016040528060008152506109b9565b61075433610678565b6107b95760405162461bcd60e51b815260206004820152603060248201527f4552433732314275726e61626c653a2063616c6c6572206973206e6f74206f7760448201526f1b995c881b9bdc88185c1c1c9bdd995960821b6064820152608401610538565b6107c281611350565b50565b3361072c81836113f3565b6000818152600260205260408120546001600160a01b03168061042b5760405162461bcd60e51b815260206004820152602960248201527f4552433732313a206f776e657220717565727920666f72206e6f6e657869737460448201526832b73a103a37b5b2b760b91b6064820152608401610538565b60006001600160a01b0382166108b25760405162461bcd60e51b815260206004820152602a60248201527f4552433732313a2062616c616e636520717565727920666f7220746865207a65604482015269726f206164647265737360b01b6064820152608401610538565b506001600160a01b031660009081526003602052604090205490565b6006546001600160a01b031633146108f85760405162461bcd60e51b8152600401610538906123f6565b6109026000611465565b565b6001600160a01b0381166000908152600a602052604081205461042b565b60004382106109735760405162461bcd60e51b815260206004820152601a60248201527f566f7465733a20626c6f636b206e6f7420796574206d696e65640000000000006044820152606401610538565b61042b60098361120b565b606060018054610440906124eb565b6001600160a01b038116600090815260086020526040812061042b906114b7565b61072c338383611521565b6109c33383610e4b565b6109df5760405162461bcd60e51b81526004016105389061242b565b6109eb848484846115f0565b50505050565b83421115610a415760405162461bcd60e51b815260206004820152601860248201527f566f7465733a207369676e6174757265206578706972656400000000000000006044820152606401610538565b604080517fe48329057bfd03d55e49b547132e39cffd9c1820ad7b9d4c5307691425d15adf60208201526001600160a01b038816918101919091526060810186905260808101859052600090610abb90610ab39060a00160405160208183030381529060405280519060200120611623565b858585611671565b9050610ac681611699565b8614610b0b5760405162461bcd60e51b8152602060048201526014602482015273566f7465733a20696e76616c6964206e6f6e636560601b6044820152606401610538565b610b1581886113f3565b50505050505050565b6000818152600260205260409020546060906001600160a01b0316610b9d5760405162461bcd60e51b815260206004820152602f60248201527f4552433732314d657461646174613a2055524920717565727920666f72206e6f60448201526e3732bc34b9ba32b73a103a37b5b2b760891b6064820152608401610538565b6000610bb460408051602081019091526000815290565b90506000815111610bd457604051806020016040528060008152506106d6565b80610bde846116c1565b604051602001610bef929190612325565b6040516020818303038152906040529392505050565b6006546001600160a01b03163314610c2f5760405162461bcd60e51b8152600401610538906123f6565b6001600160a01b038116610c945760405162461bcd60e51b815260206004820152602660248201527f4f776e61626c653a206e6577206f776e657220697320746865207a65726f206160448201526564647265737360d01b6064820152608401610538565b6107c281611465565b5490565b80546001019055565b6001600160a01b03163b151590565b61066e838360016117db565b60006106d6828461247c565b600080610cf385610cee610ce4886114b7565b868863ffffffff16565b61184b565b91509150935093915050565b60006106d682846124a8565b60006001600160e01b03821115610d745760405162461bcd60e51b815260206004820152602760248201527f53616665436173743a2076616c756520646f65736e27742066697420696e20326044820152663234206269747360c81b6064820152608401610538565b5090565b600063ffffffff821115610d745760405162461bcd60e51b815260206004820152602660248201527f53616665436173743a2076616c756520646f65736e27742066697420696e203360448201526532206269747360d01b6064820152608401610538565b600081815260046020526040902080546001600160a01b0319166001600160a01b0384169081179091558190610e12826107d0565b6001600160a01b03167f8c5be1e5ebec7d5bd14f71427d1e84f3dd0314c0f7b2291e5b200ac8c7c3b92560405160405180910390a45050565b6000818152600260205260408120546001600160a01b0316610ec45760405162461bcd60e51b815260206004820152602c60248201527f4552433732313a206f70657261746f7220717565727920666f72206e6f6e657860448201526b34b9ba32b73a103a37b5b2b760a11b6064820152608401610538565b6000610ecf836107d0565b9050806001600160a01b0316846001600160a01b03161480610f1657506001600160a01b0380821660009081526005602090815260408083209388168352929052205460ff165b80610f3a5750836001600160a01b0316610f2f846104c3565b6001600160a01b0316145b949350505050565b826001600160a01b0316610f55826107d0565b6001600160a01b031614610fb95760405162461bcd60e51b815260206004820152602560248201527f4552433732313a207472616e736665722066726f6d20696e636f72726563742060448201526437bbb732b960d91b6064820152608401610538565b6001600160a01b03821661101b5760405162461bcd60e51b8152602060048201526024808201527f4552433732313a207472616e7366657220746f20746865207a65726f206164646044820152637265737360e01b6064820152608401610538565b611026600082610ddd565b6001600160a01b038316600090815260036020526040812080546001929061104f9084906124a8565b90915550506001600160a01b038216600090815260036020526040812080546001929061107d90849061247c565b909155505060008181526002602052604080822080546001600160a01b0319166001600160a01b0386811691821790925591518493918716917fddf252ad1be2c89b69c2b068fc378daa952ba7f163c4a11628f55a4df523b3ef91a461066e83838361198d565b6000306001600160a01b037f00000000000000000000000000000000000000000000000000000000000000001614801561113d57507f000000000000000000000000000000000000000000000000000000000000000046145b1561116757507f000000000000000000000000000000000000000000000000000000000000000090565b50604080517f00000000000000000000000000000000000000000000000000000000000000006020808301919091527f0000000000000000000000000000000000000000000000000000000000000000828401527f000000000000000000000000000000000000000000000000000000000000000060608301524660808301523060a0808401919091528351808403909101815260c0909201909252805191012090565b600043821061125c5760405162461bcd60e51b815260206004820181905260248201527f436865636b706f696e74733a20626c6f636b206e6f7420796574206d696e65646044820152606401610538565b825460005b818110156112cf5760006112758284611998565b90508486600001828154811061129b57634e487b7160e01b600052603260045260246000fd5b60009182526020909120015463ffffffff1611156112bb578092506112c9565b6112c681600161247c565b91505b50611261565b811561132157846112e16001846124a8565b815481106112ff57634e487b7160e01b600052603260045260246000fd5b60009182526020909120015464010000000090046001600160e01b0316611324565b60005b6001600160e01b031695945050505050565b61072c8282604051806020016040528060008152506119b3565b600061135b826107d0565b9050611368600083610ddd565b6001600160a01b03811660009081526003602052604081208054600192906113919084906124a8565b909155505060008281526002602052604080822080546001600160a01b0319169055518391906001600160a01b038416907fddf252ad1be2c89b69c2b068fc378daa952ba7f163c4a11628f55a4df523b3ef908390a461072c8160008461198d565b6001600160a01b0382811660008181526007602052604080822080548686166001600160a01b0319821681179092559151919094169392849290917f3134e8a2e6d97e929a7e54011ea5485d7d196dd5f0ba4d4ef95803e8e3fc257f9190a461066e8183611460866119e6565b6119f1565b600680546001600160a01b038381166001600160a01b0319831681179093556040519116919082907f8be0079c531659141344cd1fd0a4f28419497f9722a3daafe3b4186f6b6457e090600090a35050565b8054600090801561150e57826114ce6001836124a8565b815481106114ec57634e487b7160e01b600052603260045260246000fd5b60009182526020909120015464010000000090046001600160e01b0316611511565b60005b6001600160e01b03169392505050565b816001600160a01b0316836001600160a01b031614156115835760405162461bcd60e51b815260206004820152601960248201527f4552433732313a20617070726f766520746f2063616c6c6572000000000000006044820152606401610538565b6001600160a01b03838116600081815260056020908152604080832094871680845294825291829020805460ff191686151590811790915591519182527f17307eab39ab6107e8899845ad3d59bd9653f200f220920489ca2b5937696c31910160405180910390a3505050565b6115fb848484610f42565b61160784848484611b2e565b6109eb5760405162461bcd60e51b8152600401610538906123a4565b600061042b6116306110e4565b8360405161190160f01b6020820152602281018390526042810182905260009060620160405160208183030381529060405280519060200120905092915050565b600080600061168287878787611c38565b9150915061168f81611d25565b5095945050505050565b6001600160a01b0381166000908152600a602052604090208054600181018255905b50919050565b6060816116e55750506040805180820190915260018152600360fc1b602082015290565b8160005b811561170f57806116f981612520565b91506117089050600a83612494565b91506116e9565b60008167ffffffffffffffff81111561173857634e487b7160e01b600052604160045260246000fd5b6040519080825280601f01601f191660200182016040528015611762576020820181803683370190505b5090505b8415610f3a576117776001836124a8565b9150611784600a8661253b565b61178f90603061247c565b60f81b8183815181106117b257634e487b7160e01b600052603260045260246000fd5b60200101906001600160f81b031916908160001a9053506117d4600a86612494565b9450611766565b6001600160a01b0383166117fa576117f76009610cc583610cd1565b50505b6001600160a01b038216611819576118166009610cff83610cd1565b50505b6001600160a01b0383811660009081526007602052604080822054858416835291205461066e929182169116836119f1565b815460009081908161185c866114b7565b90506000821180156118a8575043866118766001856124a8565b8154811061189457634e487b7160e01b600052603260045260246000fd5b60009182526020909120015463ffffffff16145b15611916576118b685610d0b565b866118c26001856124a8565b815481106118e057634e487b7160e01b600052603260045260246000fd5b9060005260206000200160000160046101000a8154816001600160e01b0302191690836001600160e01b03160217905550611984565b85600001604051806040016040528061192e43610d78565b63ffffffff16815260200161194288610d0b565b6001600160e01b0390811690915282546001810184556000938452602093849020835194909301519091166401000000000263ffffffff909316929092179101555b95939450505050565b61066e838383610cb9565b60006119a76002848418612494565b6106d69084841661247c565b6119bd8383611f26565b6119ca6000848484611b2e565b61066e5760405162461bcd60e51b8152600401610538906123a4565b600061042b82610847565b816001600160a01b0316836001600160a01b031614158015611a135750600081115b1561066e576001600160a01b03831615611aa1576001600160a01b03831660009081526008602052604081208190611a4e90610cff85610cd1565b91509150846001600160a01b03167fdec2bacdd2f05b59de34da9b523dff8be42e5e38e818c82fdb0bae774387a7248383604051611a96929190918252602082015260400190565b60405180910390a250505b6001600160a01b0382161561066e576001600160a01b03821660009081526008602052604081208190611ad790610cc585610cd1565b91509150836001600160a01b03167fdec2bacdd2f05b59de34da9b523dff8be42e5e38e818c82fdb0bae774387a7248383604051611b1f929190918252602082015260400190565b60405180910390a25050505050565b60006001600160a01b0384163b15611c3057604051630a85bd0160e11b81526001600160a01b0385169063150b7a0290611b72903390899088908890600401612354565b602060405180830381600087803b158015611b8c57600080fd5b505af1925050508015611bbc575060408051601f3d908101601f19168201909252611bb9918101906122c5565b60015b611c16573d808015611bea576040519150601f19603f3d011682016040523d82523d6000602084013e611bef565b606091505b508051611c0e5760405162461bcd60e51b8152600401610538906123a4565b805181602001fd5b6001600160e01b031916630a85bd0160e11b149050610f3a565b506001610f3a565b6000807f7fffffffffffffffffffffffffffffff5d576e7357a4501ddfe92f46681b20a0831115611c6f5750600090506003611d1c565b8460ff16601b14158015611c8757508460ff16601c14155b15611c985750600090506004611d1c565b6040805160008082526020820180845289905260ff881692820192909252606081018690526080810185905260019060a0016020604051602081039080840390855afa158015611cec573d6000803e3d6000fd5b5050604051601f1901519150506001600160a01b038116611d1557600060019250925050611d1c565b9150600090505b94509492505050565b6000816004811115611d4757634e487b7160e01b600052602160045260246000fd5b1415611d505750565b6001816004811115611d7257634e487b7160e01b600052602160045260246000fd5b1415611dc05760405162461bcd60e51b815260206004820152601860248201527f45434453413a20696e76616c6964207369676e617475726500000000000000006044820152606401610538565b6002816004811115611de257634e487b7160e01b600052602160045260246000fd5b1415611e305760405162461bcd60e51b815260206004820152601f60248201527f45434453413a20696e76616c6964207369676e6174757265206c656e677468006044820152606401610538565b6003816004811115611e5257634e487b7160e01b600052602160045260246000fd5b1415611eab5760405162461bcd60e51b815260206004820152602260248201527f45434453413a20696e76616c6964207369676e6174757265202773272076616c604482015261756560f01b6064820152608401610538565b6004816004811115611ecd57634e487b7160e01b600052602160045260246000fd5b14156107c25760405162461bcd60e51b815260206004820152602260248201527f45434453413a20696e76616c6964207369676e6174757265202776272076616c604482015261756560f01b6064820152608401610538565b6001600160a01b038216611f7c5760405162461bcd60e51b815260206004820181905260248201527f4552433732313a206d696e7420746f20746865207a65726f20616464726573736044820152606401610538565b6000818152600260205260409020546001600160a01b031615611fe15760405162461bcd60e51b815260206004820152601c60248201527f4552433732313a20746f6b656e20616c7265616479206d696e746564000000006044820152606401610538565b6001600160a01b038216600090815260036020526040812080546001929061200a90849061247c565b909155505060008181526002602052604080822080546001600160a01b0319166001600160a01b03861690811790915590518392907fddf252ad1be2c89b69c2b068fc378daa952ba7f163c4a11628f55a4df523b3ef908290a461072c6000838361198d565b80356001600160a01b038116811461208757600080fd5b919050565b60006020828403121561209d578081fd5b6106d682612070565b600080604083850312156120b8578081fd5b6120c183612070565b91506120cf60208401612070565b90509250929050565b6000806000606084860312156120ec578081fd5b6120f584612070565b925061210360208501612070565b9150604084013590509250925092565b60008060008060808587031215612128578081fd5b61213185612070565b935061213f60208601612070565b925060408501359150606085013567ffffffffffffffff80821115612162578283fd5b818701915087601f830112612175578283fd5b8135818111156121875761218761257b565b604051601f8201601f19908116603f011681019083821181831017156121af576121af61257b565b816040528281528a60208487010111156121c7578586fd5b82602086016020830137918201602001949094529598949750929550505050565b600080604083850312156121fa578182fd5b61220383612070565b915060208301358015158114612217578182fd5b809150509250929050565b60008060408385031215612234578182fd5b61223d83612070565b946020939093013593505050565b60008060008060008060c08789031215612263578182fd5b61226c87612070565b95506020870135945060408701359350606087013560ff8116811461228f578283fd5b9598949750929560808101359460a0909101359350915050565b6000602082840312156122ba578081fd5b81356106d681612591565b6000602082840312156122d6578081fd5b81516106d681612591565b6000602082840312156122f2578081fd5b5035919050565b600081518084526123118160208601602086016124bf565b601f01601f19169290920160200192915050565b600083516123378184602088016124bf565b83519083019061234b8183602088016124bf565b01949350505050565b6001600160a01b0385811682528416602082015260408101839052608060608201819052600090612387908301846122f9565b9695505050505050565b6020815260006106d660208301846122f9565b60208082526032908201527f4552433732313a207472616e7366657220746f206e6f6e20455243373231526560408201527131b2b4bb32b91034b6b83632b6b2b73a32b960711b606082015260800190565b6020808252818101527f4f776e61626c653a2063616c6c6572206973206e6f7420746865206f776e6572604082015260600190565b60208082526031908201527f4552433732313a207472616e736665722063616c6c6572206973206e6f74206f6040820152701ddb995c881b9bdc88185c1c1c9bdd9959607a1b606082015260800190565b6000821982111561248f5761248f61254f565b500190565b6000826124a3576124a3612565565b500490565b6000828210156124ba576124ba61254f565b500390565b60005b838110156124da5781810151838201526020016124c2565b838111156109eb5750506000910152565b600181811c908216806124ff57607f821691505b602082108114156116bb57634e487b7160e01b600052602260045260246000fd5b60006000198214156125345761253461254f565b5060010190565b60008261254a5761254a612565565b500690565b634e487b7160e01b600052601160045260246000fd5b634e487b7160e01b600052601260045260246000fd5b634e487b7160e01b600052604160045260246000fd5b6001600160e01b0319811681146107c257600080fdfea26469706673582212204c7e3649d51962cc110fc9c1e25ae0ad48cee3d7a8287b5c863de584e3303dfa64736f6c634300080400334552433732313a207472616e7366657220746f206e6f6e204552433732315265dec2bacdd2f05b59de34da9b523dff8be42e5e38e818c82fdb0bae774387a724",
  "devdoc": {
    "kind": "dev",
    "methods": {
      "DOMAIN_SEPARATOR()": {
        "details": "Returns the contract's {EIP712} domain separator."
      },
      "approve(address,uint256)": {
        "details": "See {IERC721-approve}."
      },
      "balanceOf(address)": {
        "details": "See {IERC721-balanceOf}."
      },
      "burn(uint256)": {
        "details": "Burns `tokenId`. See {ERC721-_burn}. Requirements: - The caller must own `tokenId` or be an approved operator."
      },
      "delegate(address)": {
        "details": "Delegates votes from the sender to `delegatee`."
      },
      "delegateBySig(address,uint256,uint256,uint8,bytes32,bytes32)": {
        "details": "Delegates votes from signer to `delegatee`."
      },
      "delegates(address)": {
        "details": "Returns the delegate that `account` has chosen."
      },
      "getApproved(uint256)": {
        "details": "See {IERC721-getApproved}."
      },
      "getPastTotalSupply(uint256)": {
        "details": "Returns the total supply of votes available at the end of a past block (`blockNumber`). NOTE: This value is the sum of all available votes, which is not necessarily the sum of all delegated votes. Votes that have not been delegated are still part of total supply, even though they would not participate in a vote. Requirements: - `blockNumber` must have been already mined"
      },
      "getPastVotes(address,uint256)": {
        "details": "Returns the amount of votes that `account` had at the end of a past block (`blockNumber`). Requirements: - `blockNumber` must have been already mined"
      },
      "getVotes(address)": {
        "details": "Returns the current amount of votes that `account` has."
      },
      "isApprovedForAll(address,address)": {
        "details": "See {IERC721-isApprovedForAll}."
      },
      "name()": {
        "details": "See {IERC721Metadata-name}."
      },
      "nonces(address)": {
        "details": "Returns an address nonce."
      },
      "owner()": {
        "details": "Returns the address of the current owner."
      },
      "ownerOf(uint256)": {
        "details": "See {IERC721-ownerOf}."
      },
      "renounceOwnership()": {
        "details": "Leaves the contract without owner. It will not be possible to call `onlyOwner` functions anymore. Can only be called by the current owner. NOTE: Renouncing ownership will leave the contract without an owner, thereby removing any functionality that is only available to the owner."
      },
      "safeTransferFrom(address,address,uint256)": {
        "details": "See {IERC721-safeTransferFrom}."
      },
      "safeTransferFrom(address,address,uint256,bytes)": {
        "details": "See {IERC721-safeTransferFrom}."
      },
      "setApprovalForAll(address,bool)": {
        "details": "See {IERC721-setApprovalForAll}."
      },
      "supportsInterface(bytes4)": {
        "details": "See {IERC165-supportsInterface}."
      },
      "symbol()": {
        "details": "See {IERC721Metadata-symbol}."
      },
      "tokenURI(uint256)": {
        "details": "See {IERC721Metadata-tokenURI}."
      },
      "transferFrom(address,address,uint256)": {
        "details": "See {IERC721-transferFrom}."
      },
      "transferOwnership(address)": {
        "details": "Transfers ownership of the contract to a new account (`newOwner`). Can only be called by the current owner."
      }
    },
    "version": 1
  },
  "userdoc": {
    "kind": "user",
    "methods": {},
    "version": 1
  },
  "storageLayout": {
    "storage": [
      {
        "astId": 4553,
        "contract": "contracts/GovernanceToken.sol:GovernanceToken",
        "label": "_name",
        "offset": 0,
        "slot": "0",
        "type": "t_string_storage"
      },
      {
        "astId": 4555,
        "contract": "contracts/GovernanceToken.sol:GovernanceToken",
        "label": "_symbol",
        "offset": 0,
        "slot": "1",
        "type": "t_string_storage"
      },
      {
        "astId": 4559,
        "contract": "contracts/GovernanceToken.sol:GovernanceToken",
        "label": "_owners",
        "offset": 0,
        "slot": "2",
        "type": "t_mapping(t_uint256,t_address)"
      },
      {
        "astId": 4563,
        "contract": "contracts/GovernanceToken.sol:GovernanceToken",
        "label": "_balances",
        "offset": 0,
        "slot": "3",
        "type": "t_mapping(t_address,t_uint256)"
      },
      {
        "astId": 4567,
        "contract": "contracts/GovernanceToken.sol:GovernanceToken",
        "label": "_tokenApprovals",
        "offset": 0,
        "slot": "4",
        "type": "t_mapping(t_uint256,t_address)"
      },
      {
        "astId": 4573,
        "contract": "contracts/GovernanceToken.sol:GovernanceToken",
        "label": "_operatorApprovals",
        "offset": 0,
        "slot": "5",
        "type": "t_mapping(t_address,t_mapping(t_address,t_bool))"
      },
      {
        "astId": 400,
        "contract": "contracts/GovernanceToken.sol:GovernanceToken",
        "label": "_owner",
        "offset": 0,
        "slot": "6",
        "type": "t_address"
      },
      {
        "astId": 4063,
        "contract": "contracts/GovernanceToken.sol:GovernanceToken",
        "label": "_delegation",
        "offset": 0,
        "slot": "7",
        "type": "t_mapping(t_address,t_address)"
      },
      {
        "astId": 4068,
        "contract": "contracts/GovernanceToken.sol:GovernanceToken",
        "label": "_delegateCheckpoints",
        "offset": 0,
        "slot": "8",
        "type": "t_mapping(t_address,t_struct(History)6072_storage)"
      },
      {
        "astId": 4071,
        "contract": "contracts/GovernanceToken.sol:GovernanceToken",
        "label": "_totalCheckpoints",
        "offset": 0,
        "slot": "9",
        "type": "t_struct(History)6072_storage"
      },
      {
        "astId": 4076,
        "contract": "contracts/GovernanceToken.sol:GovernanceToken",
        "label": "_nonces",
        "offset": 0,
        "slot": "10",
        "type": "t_mapping(t_address,t_struct(Counter)6319_storage)"
      },
      {
        "astId": 8248,
        "contract": "contracts/GovernanceToken.sol:GovernanceToken",
        "label": "tokenIdCounter",
        "offset": 0,
        "slot": "11",
        "type": "t_struct(Counter)6319_storage"
      }
    ],
    "types": {
      "t_address": {
        "encoding": "inplace",
        "label": "address",
        "numberOfBytes": "20"
      },
      "t_array(t_struct(Checkpoint)6067_storage)dyn_storage": {
        "base": "t_struct(Checkpoint)6067_storage",
        "encoding": "dynamic_array",
        "label": "struct Checkpoints.Checkpoint[]",
        "numberOfBytes": "32"
      },
      "t_bool": {
        "encoding": "inplace",
        "label": "bool",
        "numberOfBytes": "1"
      },
      "t_mapping(t_address,t_address)": {
        "encoding": "mapping",
        "key": "t_address",
        "label": "mapping(address => address)",
        "numberOfBytes": "32",
        "value": "t_address"
      },
      "t_mapping(t_address,t_bool)": {
        "encoding": "mapping",
        "key": "t_address",
        "label": "mapping(address => bool)",
        "numberOfBytes": "32",
        "value": "t_bool"
      },
      "t_mapping(t_address,t_mapping(t_address,t_bool))": {
        "encoding": "mapping",
        "key": "t_address",
        "label": "mapping(address => mapping(address => bool))",
        "numberOfBytes": "32",
        "value": "t_mapping(t_address,t_bool)"
      },
      "t_mapping(t_address,t_struct(Counter)6319_storage)": {
        "encoding": "mapping",
        "key": "t_address",
        "label": "mapping(address => struct Counters.Counter)",
        "numberOfBytes": "32",
        "value": "t_struct(Counter)6319_storage"
      },
      "t_mapping(t_address,t_struct(History)6072_storage)": {
        "encoding": "mapping",
        "key": "t_address",
        "label": "mapping(address => struct Checkpoints.History)",
        "numberOfBytes": "32",
        "value": "t_struct(History)6072_storage"
      },
      "t_mapping(t_address,t_uint256)": {
        "encoding": "mapping",
        "key": "t_address",
        "label": "mapping(address => uint256)",
        "numberOfBytes": "32",
        "value": "t_uint256"
      },
      "t_mapping(t_uint256,t_address)": {
        "encoding": "mapping",
        "key": "t_uint256",
        "label": "mapping(uint256 => address)",
        "numberOfBytes": "32",
        "value": "t_address"
      },
      "t_string_storage": {
        "encoding": "bytes",
        "label": "string",
        "numberOfBytes": "32"
      },
      "t_struct(Checkpoint)6067_storage": {
        "encoding": "inplace",
        "label": "struct Checkpoints.Checkpoint",
        "members": [
          {
            "astId": 6064,
            "contract": "contracts/GovernanceToken.sol:GovernanceToken",
            "label": "_blockNumber",
            "offset": 0,
            "slot": "0",
            "type": "t_uint32"
          },
          {
            "astId": 6066,
            "contract": "contracts/GovernanceToken.sol:GovernanceToken",
            "label": "_value",
            "offset": 4,
            "slot": "0",
            "type": "t_uint224"
          }
        ],
        "numberOfBytes": "32"
      },
      "t_struct(Counter)6319_storage": {
        "encoding": "inplace",
        "label": "struct Counters.Counter",
        "members": [
          {
            "astId": 6318,
            "contract": "contracts/GovernanceToken.sol:GovernanceToken",
            "label": "_value",
            "offset": 0,
            "slot": "0",
            "type": "t_uint256"
          }
        ],
        "numberOfBytes": "32"
      },
      "t_struct(History)6072_storage": {
        "encoding": "inplace",
        "label": "struct Checkpoints.History",
        "members": [
          {
            "astId": 6071,
            "contract": "contracts/GovernanceToken.sol:GovernanceToken",
            "label": "_checkpoints",
            "offset": 0,
            "slot": "0",
            "type": "t_array(t_struct(Checkpoint)6067_storage)dyn_storage"
          }
        ],
        "numberOfBytes": "32"
      },
      "t_uint224": {
        "encoding": "inplace",
        "label": "uint224",
        "numberOfBytes": "28"
      },
      "t_uint256": {
        "encoding": "inplace",
        "label": "uint256",
        "numberOfBytes": "32"
      },
      "t_uint32": {
        "encoding": "inplace",
        "label": "uint32",
        "numberOfBytes": "4"
      }
    }
  }
}