{
  "address": "0x2E5E0d550e0580dfACfeab097B4992237673fD39",
  "abi": [
    {
      "inputs": [],
      "stateMutability": "nonpayable",
      "type": "constructor"
    },
    {
      "anonymous": false,
      "inputs": [
        {
          "indexed": true,
          "internalType": "address",
          "name": "owner",
          "type": "address"
        },
        {
          "indexed": true,
          "internalType": "address",
          "name": "approved",
          "type": "address"
        },
        {
          "indexed": true,
          "internalType": "uint256",
          "name": "tokenId",
          "type": "uint256"
        }
      ],
      "name": "Approval",
      "type": "event"
    },
    {
      "anonymous": false,
      "inputs": [
        {
          "indexed": true,
          "internalType": "address",
          "name": "owner",
          "type": "address"
        },
        {
          "indexed": true,
          "internalType": "address",
          "name": "operator",
          "type": "address"
        },
        {
          "indexed": false,
          "internalType": "bool",
          "name": "approved",
          "type": "bool"
        }
      ],
      "name": "ApprovalForAll",
      "type": "event"
    },
    {
      "anonymous": false,
      "inputs": [
        {
          "indexed": true,
          "internalType": "uint256",
          "name": "tokenId",
          "type": "uint256"
        },
        {
          "indexed": false,
          "internalType": "address",
          "name": "owner",
          "type": "address"
        },
        {
          "indexed": false,
          "internalType": "uint256",
          "name": "price",
          "type": "uint256"
        }
      ],
      "name": "MarketItemCreated",
      "type": "event"
    },
    {
      "anonymous": false,
      "inputs": [
        {
          "indexed": true,
          "internalType": "address",
          "name": "previousOwner",
          "type": "address"
        },
        {
          "indexed": true,
          "internalType": "address",
          "name": "newOwner",
          "type": "address"
        }
      ],
      "name": "OwnershipTransferred",
      "type": "event"
    },
    {
      "anonymous": false,
      "inputs": [
        {
          "indexed": true,
          "internalType": "address",
          "name": "from",
          "type": "address"
        },
        {
          "indexed": true,
          "internalType": "address",
          "name": "to",
          "type": "address"
        },
        {
          "indexed": true,
          "internalType": "uint256",
          "name": "tokenId",
          "type": "uint256"
        }
      ],
      "name": "Transfer",
      "type": "event"
    },
    {
      "inputs": [
        {
          "internalType": "address",
          "name": "to",
          "type": "address"
        },
        {
          "internalType": "uint256",
          "name": "tokenId",
          "type": "uint256"
        }
      ],
      "name": "approve",
      "outputs": [],
      "stateMutability": "nonpayable",
      "type": "function"
    },
    {
      "inputs": [
        {
          "internalType": "address",
          "name": "owner",
          "type": "address"
        }
      ],
      "name": "balanceOf",
      "outputs": [
        {
          "internalType": "uint256",
          "name": "",
          "type": "uint256"
        }
      ],
      "stateMutability": "view",
      "type": "function"
    },
    {
      "inputs": [
        {
          "internalType": "uint256",
          "name": "_tokenId",
          "type": "uint256"
        }
      ],
      "name": "burn",
      "outputs": [],
      "stateMutability": "nonpayable",
      "type": "function"
    },
    {
      "inputs": [
        {
          "internalType": "string",
          "name": "_tokenURI",
          "type": "string"
        },
        {
          "internalType": "uint256",
          "name": "_price",
          "type": "uint256"
        }
      ],
      "name": "createToken",
      "outputs": [
        {
          "internalType": "uint256",
          "name": "",
          "type": "uint256"
        }
      ],
      "stateMutability": "payable",
      "type": "function"
    },
    {
      "inputs": [],
      "name": "fetchMarketItems",
      "outputs": [
        {
          "components": [
            {
              "internalType": "uint256",
              "name": "tokenId",
              "type": "uint256"
            },
            {
              "internalType": "address payable",
              "name": "owner",
              "type": "address"
            },
            {
              "internalType": "uint256",
              "name": "price",
              "type": "uint256"
            }
          ],
          "internalType": "struct NFTMarketplace.MarketItem[]",
          "name": "",
          "type": "tuple[]"
        }
      ],
      "stateMutability": "view",
      "type": "function"
    },
    {
      "inputs": [
        {
          "internalType": "uint256",
          "name": "tokenId",
          "type": "uint256"
        }
      ],
      "name": "getApproved",
      "outputs": [
        {
          "internalType": "address",
          "name": "",
          "type": "address"
        }
      ],
      "stateMutability": "view",
      "type": "function"
    },
    {
      "inputs": [
        {
          "internalType": "address",
          "name": "owner",
          "type": "address"
        },
        {
          "internalType": "address",
          "name": "operator",
          "type": "address"
        }
      ],
      "name": "isApprovedForAll",
      "outputs": [
        {
          "internalType": "bool",
          "name": "",
          "type": "bool"
        }
      ],
      "stateMutability": "view",
      "type": "function"
    },
    {
      "inputs": [],
      "name": "name",
      "outputs": [
        {
          "internalType": "string",
          "name": "",
          "type": "string"
        }
      ],
      "stateMutability": "view",
      "type": "function"
    },
    {
      "inputs": [],
      "name": "owner",
      "outputs": [
        {
          "internalType": "address",
          "name": "",
          "type": "address"
        }
      ],
      "stateMutability": "view",
      "type": "function"
    },
    {
      "inputs": [
        {
          "internalType": "uint256",
          "name": "tokenId",
          "type": "uint256"
        }
      ],
      "name": "ownerOf",
      "outputs": [
        {
          "internalType": "address",
          "name": "",
          "type": "address"
        }
      ],
      "stateMutability": "view",
      "type": "function"
    },
    {
      "inputs": [],
      "name": "renounceOwnership",
      "outputs": [],
      "stateMutability": "nonpayable",
      "type": "function"
    },
    {
      "inputs": [
        {
          "internalType": "address",
          "name": "from",
          "type": "address"
        },
        {
          "internalType": "address",
          "name": "to",
          "type": "address"
        },
        {
          "internalType": "uint256",
          "name": "tokenId",
          "type": "uint256"
        }
      ],
      "name": "safeTransferFrom",
      "outputs": [],
      "stateMutability": "nonpayable",
      "type": "function"
    },
    {
      "inputs": [
        {
          "internalType": "address",
          "name": "from",
          "type": "address"
        },
        {
          "internalType": "address",
          "name": "to",
          "type": "address"
        },
        {
          "internalType": "uint256",
          "name": "tokenId",
          "type": "uint256"
        },
        {
          "internalType": "bytes",
          "name": "_data",
          "type": "bytes"
        }
      ],
      "name": "safeTransferFrom",
      "outputs": [],
      "stateMutability": "nonpayable",
      "type": "function"
    },
    {
      "inputs": [
        {
          "internalType": "address",
          "name": "operator",
          "type": "address"
        },
        {
          "internalType": "bool",
          "name": "approved",
          "type": "bool"
        }
      ],
      "name": "setApprovalForAll",
      "outputs": [],
      "stateMutability": "nonpayable",
      "type": "function"
    },
    {
      "inputs": [
        {
          "internalType": "bytes4",
          "name": "interfaceId",
          "type": "bytes4"
        }
      ],
      "name": "supportsInterface",
      "outputs": [
        {
          "internalType": "bool",
          "name": "",
          "type": "bool"
        }
      ],
      "stateMutability": "view",
      "type": "function"
    },
    {
      "inputs": [],
      "name": "symbol",
      "outputs": [
        {
          "internalType": "string",
          "name": "",
          "type": "string"
        }
      ],
      "stateMutability": "view",
      "type": "function"
    },
    {
      "inputs": [],
      "name": "tokenIds",
      "outputs": [
        {
          "internalType": "uint256",
          "name": "_value",
          "type": "uint256"
        }
      ],
      "stateMutability": "view",
      "type": "function"
    },
    {
      "inputs": [
        {
          "internalType": "uint256",
          "name": "tokenId",
          "type": "uint256"
        }
      ],
      "name": "tokenURI",
      "outputs": [
        {
          "internalType": "string",
          "name": "",
          "type": "string"
        }
      ],
      "stateMutability": "view",
      "type": "function"
    },
    {
      "inputs": [
        {
          "internalType": "address",
          "name": "from",
          "type": "address"
        },
        {
          "internalType": "address",
          "name": "to",
          "type": "address"
        },
        {
          "internalType": "uint256",
          "name": "tokenId",
          "type": "uint256"
        }
      ],
      "name": "transferFrom",
      "outputs": [],
      "stateMutability": "nonpayable",
      "type": "function"
    },
    {
      "inputs": [
        {
          "internalType": "address",
          "name": "newOwner",
          "type": "address"
        }
      ],
      "name": "transferOwnership",
      "outputs": [],
      "stateMutability": "nonpayable",
      "type": "function"
    }
  ],
  "transactionHash": "0x816cf54e341dc27c048e95c379ebbe55c4f92bab697ead50108e42f32c64b26d",
  "args": [],
  "numDeployments": 1,
  "solcInputHash": "6be4929093ffccbb7819ede23ce16cfe",
  "bytecode": "0x60806040523480156200001157600080fd5b5060408051808201825260128152714d61726b6574706c61636520546f6b656e7360701b60208083019182528351808501909452600584526413505492d560da1b9084015281519192916200006991600091620000f8565b5080516200007f906001906020840190620000f8565b5050506200009c62000096620000a260201b60201c565b620000a6565b620001db565b3390565b600780546001600160a01b038381166001600160a01b0319831681179093556040519116919082907f8be0079c531659141344cd1fd0a4f28419497f9722a3daafe3b4186f6b6457e090600090a35050565b82805462000106906200019e565b90600052602060002090601f0160209004810192826200012a576000855562000175565b82601f106200014557805160ff191683800117855562000175565b8280016001018555821562000175579182015b828111156200017557825182559160200191906001019062000158565b506200018392915062000187565b5090565b5b8082111562000183576000815560010162000188565b600181811c90821680620001b357607f821691505b60208210811415620001d557634e487b7160e01b600052602260045260246000fd5b50919050565b611eb980620001eb6000396000f3fe60806040526004361061011f5760003560e01c8063714cff56116100a0578063a22cb46511610064578063a22cb46514610317578063b88d4fde14610337578063c87b56dd14610357578063e985e9c514610377578063f2fde38b146103c057600080fd5b8063714cff56146102a5578063715018a6146102bc57806372b3b620146102d15780638da5cb5b146102e457806395d89b411461030257600080fd5b806323b872dd116100e757806323b872dd146101f757806342842e0e1461021757806342966c68146102375780636352211e1461025757806370a082311461027757600080fd5b806301ffc9a71461012457806306fdde0314610159578063081812fc1461017b578063095ea7b3146101b35780630f08efe0146101d5575b600080fd5b34801561013057600080fd5b5061014461013f366004611ac7565b6103e0565b60405190151581526020015b60405180910390f35b34801561016557600080fd5b5061016e610432565b6040516101509190611c67565b34801561018757600080fd5b5061019b610196366004611b55565b6104c4565b6040516001600160a01b039091168152602001610150565b3480156101bf57600080fd5b506101d36101ce366004611a9e565b610551565b005b3480156101e157600080fd5b506101ea610667565b6040516101509190611c05565b34801561020357600080fd5b506101d36102123660046119b0565b610803565b34801561022357600080fd5b506101d36102323660046119b0565b610834565b34801561024357600080fd5b506101d3610252366004611b55565b61084f565b34801561026357600080fd5b5061019b610272366004611b55565b610908565b34801561028357600080fd5b50610297610292366004611964565b61097f565b604051908152602001610150565b3480156102b157600080fd5b506008546102979081565b3480156102c857600080fd5b506101d3610a06565b6102976102df366004611aff565b610a3c565b3480156102f057600080fd5b506007546001600160a01b031661019b565b34801561030e57600080fd5b5061016e610aa9565b34801561032357600080fd5b506101d3610332366004611a64565b610ab8565b34801561034357600080fd5b506101d36103523660046119eb565b610ac7565b34801561036357600080fd5b5061016e610372366004611b55565b610aff565b34801561038357600080fd5b5061014461039236600461197e565b6001600160a01b03918216600090815260056020908152604080832093909416825291909152205460ff1690565b3480156103cc57600080fd5b506101d36103db366004611964565b610c76565b60006001600160e01b031982166380ac58cd60e01b148061041157506001600160e01b03198216635b5e139f60e01b145b8061042c57506301ffc9a760e01b6001600160e01b03198316145b92915050565b60606000805461044190611dc1565b80601f016020809104026020016040519081016040528092919081815260200182805461046d90611dc1565b80156104ba5780601f1061048f576101008083540402835291602001916104ba565b820191906000526020600020905b81548152906001019060200180831161049d57829003601f168201915b5050505050905090565b60006104cf82610d11565b6105355760405162461bcd60e51b815260206004820152602c60248201527f4552433732313a20617070726f76656420717565727920666f72206e6f6e657860448201526b34b9ba32b73a103a37b5b2b760a11b60648201526084015b60405180910390fd5b506000908152600460205260409020546001600160a01b031690565b600061055c82610908565b9050806001600160a01b0316836001600160a01b031614156105ca5760405162461bcd60e51b815260206004820152602160248201527f4552433732313a20617070726f76616c20746f2063757272656e74206f776e656044820152603960f91b606482015260840161052c565b336001600160a01b03821614806105e657506105e68133610392565b6106585760405162461bcd60e51b815260206004820152603860248201527f4552433732313a20617070726f76652063616c6c6572206973206e6f74206f7760448201527f6e6572206e6f7220617070726f76656420666f7220616c6c0000000000000000606482015260840161052c565b6106628383610d2e565b505050565b6060600061067460085490565b9050600061068160095490565b60085461068e9190611d7e565b90506000808267ffffffffffffffff8111156106ba57634e487b7160e01b600052604160045260246000fd5b60405190808252806020026020018201604052801561071857816020015b61070560405180606001604052806000815260200160006001600160a01b03168152602001600081525090565b8152602001906001900390816106d85790505b50905060005b848110156107fa5730600a6000610736846001611d52565b81526020810191909152604001600020600101546001600160a01b031614156107e8576000600a81610769846001611d52565b8152602080820192909252604090810160002081516060810183528154815260018201546001600160a01b03169381019390935260028101549183019190915284519092508490869081106107ce57634e487b7160e01b600052603260045260246000fd5b60209081029190910101526107e4600185611d52565b9350505b806107f281611dfc565b91505061071e565b50949350505050565b61080d3382610d9c565b6108295760405162461bcd60e51b815260040161052c90611d01565b610662838383610e85565b61066283838360405180602001604052806000815250610ac7565b6007546001600160a01b031633146108795760405162461bcd60e51b815260040161052c90611ccc565b6000818152600a6020526040902060010180546001600160a01b03191690556108a6600980546001019055565b6108af81611021565b6040805160608101825282815260006020808301828152838501838152958352600a9091529290209051815590516001820180546001600160a01b0319166001600160a01b039092169190911790559051600290910155565b6000818152600260205260408120546001600160a01b03168061042c5760405162461bcd60e51b815260206004820152602960248201527f4552433732313a206f776e657220717565727920666f72206e6f6e657869737460448201526832b73a103a37b5b2b760b91b606482015260840161052c565b60006001600160a01b0382166109ea5760405162461bcd60e51b815260206004820152602a60248201527f4552433732313a2062616c616e636520717565727920666f7220746865207a65604482015269726f206164647265737360b01b606482015260840161052c565b506001600160a01b031660009081526003602052604090205490565b6007546001600160a01b03163314610a305760405162461bcd60e51b815260040161052c90611ccc565b610a3a6000611061565b565b6007546000906001600160a01b03163314610a695760405162461bcd60e51b815260040161052c90611ccc565b610a77600880546001019055565b6000610a8260085490565b9050610a8e33826110b3565b610a9881856111e6565b610aa28184611271565b9392505050565b60606001805461044190611dc1565b610ac3338383611364565b5050565b610ad13383610d9c565b610aed5760405162461bcd60e51b815260040161052c90611d01565b610af984848484611433565b50505050565b6060610b0a82610d11565b610b705760405162461bcd60e51b815260206004820152603160248201527f45524337323155524953746f726167653a2055524920717565727920666f72206044820152703737b732bc34b9ba32b73a103a37b5b2b760791b606482015260840161052c565b60008281526006602052604081208054610b8990611dc1565b80601f0160208091040260200160405190810160405280929190818152602001828054610bb590611dc1565b8015610c025780601f10610bd757610100808354040283529160200191610c02565b820191906000526020600020905b815481529060010190602001808311610be557829003601f168201915b505050505090506000610c2060408051602081019091526000815290565b9050805160001415610c33575092915050565b815115610c65578082604051602001610c4d929190611b99565b60405160208183030381529060405292505050919050565b610c6e84611466565b949350505050565b6007546001600160a01b03163314610ca05760405162461bcd60e51b815260040161052c90611ccc565b6001600160a01b038116610d055760405162461bcd60e51b815260206004820152602660248201527f4f776e61626c653a206e6577206f776e657220697320746865207a65726f206160448201526564647265737360d01b606482015260840161052c565b610d0e81611061565b50565b6000908152600260205260409020546001600160a01b0316151590565b600081815260046020526040902080546001600160a01b0319166001600160a01b0384169081179091558190610d6382610908565b6001600160a01b03167f8c5be1e5ebec7d5bd14f71427d1e84f3dd0314c0f7b2291e5b200ac8c7c3b92560405160405180910390a45050565b6000610da782610d11565b610e085760405162461bcd60e51b815260206004820152602c60248201527f4552433732313a206f70657261746f7220717565727920666f72206e6f6e657860448201526b34b9ba32b73a103a37b5b2b760a11b606482015260840161052c565b6000610e1383610908565b9050806001600160a01b0316846001600160a01b03161480610e5a57506001600160a01b0380821660009081526005602090815260408083209388168352929052205460ff165b80610c6e5750836001600160a01b0316610e73846104c4565b6001600160a01b031614949350505050565b826001600160a01b0316610e9882610908565b6001600160a01b031614610efc5760405162461bcd60e51b815260206004820152602560248201527f4552433732313a207472616e736665722066726f6d20696e636f72726563742060448201526437bbb732b960d91b606482015260840161052c565b6001600160a01b038216610f5e5760405162461bcd60e51b8152602060048201526024808201527f4552433732313a207472616e7366657220746f20746865207a65726f206164646044820152637265737360e01b606482015260840161052c565b610f69600082610d2e565b6001600160a01b0383166000908152600360205260408120805460019290610f92908490611d7e565b90915550506001600160a01b0382166000908152600360205260408120805460019290610fc0908490611d52565b909155505060008181526002602052604080822080546001600160a01b0319166001600160a01b0386811691821790925591518493918716917fddf252ad1be2c89b69c2b068fc378daa952ba7f163c4a11628f55a4df523b3ef91a4505050565b61102a8161153d565b6000818152600660205260409020805461104390611dc1565b159050610d0e576000818152600660205260408120610d0e916117ff565b600780546001600160a01b038381166001600160a01b0319831681179093556040519116919082907f8be0079c531659141344cd1fd0a4f28419497f9722a3daafe3b4186f6b6457e090600090a35050565b6001600160a01b0382166111095760405162461bcd60e51b815260206004820181905260248201527f4552433732313a206d696e7420746f20746865207a65726f2061646472657373604482015260640161052c565b61111281610d11565b1561115f5760405162461bcd60e51b815260206004820152601c60248201527f4552433732313a20746f6b656e20616c7265616479206d696e74656400000000604482015260640161052c565b6001600160a01b0382166000908152600360205260408120805460019290611188908490611d52565b909155505060008181526002602052604080822080546001600160a01b0319166001600160a01b03861690811790915590518392907fddf252ad1be2c89b69c2b068fc378daa952ba7f163c4a11628f55a4df523b3ef908290a45050565b6111ef82610d11565b6112525760405162461bcd60e51b815260206004820152602e60248201527f45524337323155524953746f726167653a2055524920736574206f66206e6f6e60448201526d32bc34b9ba32b73a103a37b5b2b760911b606482015260840161052c565b6000828152600660209081526040909120825161066292840190611839565b600081116112c15760405162461bcd60e51b815260206004820152601c60248201527f5072696365206d757374206265206174206c6561737420312077656900000000604482015260640161052c565b604080516060810182528381523060208083018281528385018681526000888152600a9093529490912092518355516001830180546001600160a01b0319166001600160a01b03909216919091179055915160029091015561132590339084610e85565b604080513081526020810183905283917fec759846c972e2aa7c351c68392f7388dfb8511b1d2be0ee4cdfbc50011f7152910160405180910390a25050565b816001600160a01b0316836001600160a01b031614156113c65760405162461bcd60e51b815260206004820152601960248201527f4552433732313a20617070726f766520746f2063616c6c657200000000000000604482015260640161052c565b6001600160a01b03838116600081815260056020908152604080832094871680845294825291829020805460ff191686151590811790915591519182527f17307eab39ab6107e8899845ad3d59bd9653f200f220920489ca2b5937696c31910160405180910390a3505050565b61143e848484610e85565b61144a848484846115d8565b610af95760405162461bcd60e51b815260040161052c90611c7a565b606061147182610d11565b6114d55760405162461bcd60e51b815260206004820152602f60248201527f4552433732314d657461646174613a2055524920717565727920666f72206e6f60448201526e3732bc34b9ba32b73a103a37b5b2b760891b606482015260840161052c565b60006114ec60408051602081019091526000815290565b9050600081511161150c5760405180602001604052806000815250610aa2565b80611516846116e5565b604051602001611527929190611b99565b6040516020818303038152906040529392505050565b600061154882610908565b9050611555600083610d2e565b6001600160a01b038116600090815260036020526040812080546001929061157e908490611d7e565b909155505060008281526002602052604080822080546001600160a01b0319169055518391906001600160a01b038416907fddf252ad1be2c89b69c2b068fc378daa952ba7f163c4a11628f55a4df523b3ef908390a45050565b60006001600160a01b0384163b156116da57604051630a85bd0160e11b81526001600160a01b0385169063150b7a029061161c903390899088908890600401611bc8565b602060405180830381600087803b15801561163657600080fd5b505af1925050508015611666575060408051601f3d908101601f1916820190925261166391810190611ae3565b60015b6116c0573d808015611694576040519150601f19603f3d011682016040523d82523d6000602084013e611699565b606091505b5080516116b85760405162461bcd60e51b815260040161052c90611c7a565b805181602001fd5b6001600160e01b031916630a85bd0160e11b149050610c6e565b506001949350505050565b6060816117095750506040805180820190915260018152600360fc1b602082015290565b8160005b8115611733578061171d81611dfc565b915061172c9050600a83611d6a565b915061170d565b60008167ffffffffffffffff81111561175c57634e487b7160e01b600052604160045260246000fd5b6040519080825280601f01601f191660200182016040528015611786576020820181803683370190505b5090505b8415610c6e5761179b600183611d7e565b91506117a8600a86611e17565b6117b3906030611d52565b60f81b8183815181106117d657634e487b7160e01b600052603260045260246000fd5b60200101906001600160f81b031916908160001a9053506117f8600a86611d6a565b945061178a565b50805461180b90611dc1565b6000825580601f1061181b575050565b601f016020900490600052602060002090810190610d0e91906118bd565b82805461184590611dc1565b90600052602060002090601f01602090048101928261186757600085556118ad565b82601f1061188057805160ff19168380011785556118ad565b828001600101855582156118ad579182015b828111156118ad578251825591602001919060010190611892565b506118b99291506118bd565b5090565b5b808211156118b957600081556001016118be565b600067ffffffffffffffff808411156118ed576118ed611e57565b604051601f8501601f19908116603f0116810190828211818310171561191557611915611e57565b8160405280935085815286868601111561192e57600080fd5b858560208301376000602087830101525050509392505050565b80356001600160a01b038116811461195f57600080fd5b919050565b600060208284031215611975578081fd5b610aa282611948565b60008060408385031215611990578081fd5b61199983611948565b91506119a760208401611948565b90509250929050565b6000806000606084860312156119c4578081fd5b6119cd84611948565b92506119db60208501611948565b9150604084013590509250925092565b60008060008060808587031215611a00578081fd5b611a0985611948565b9350611a1760208601611948565b925060408501359150606085013567ffffffffffffffff811115611a39578182fd5b8501601f81018713611a49578182fd5b611a58878235602084016118d2565b91505092959194509250565b60008060408385031215611a76578182fd5b611a7f83611948565b915060208301358015158114611a93578182fd5b809150509250929050565b60008060408385031215611ab0578182fd5b611ab983611948565b946020939093013593505050565b600060208284031215611ad8578081fd5b8135610aa281611e6d565b600060208284031215611af4578081fd5b8151610aa281611e6d565b60008060408385031215611b11578182fd5b823567ffffffffffffffff811115611b27578283fd5b8301601f81018513611b37578283fd5b611b46858235602084016118d2565b95602094909401359450505050565b600060208284031215611b66578081fd5b5035919050565b60008151808452611b85816020860160208601611d95565b601f01601f19169290920160200192915050565b60008351611bab818460208801611d95565b835190830190611bbf818360208801611d95565b01949350505050565b6001600160a01b0385811682528416602082015260408101839052608060608201819052600090611bfb90830184611b6d565b9695505050505050565b602080825282518282018190526000919060409081850190868401855b82811015611c5a57815180518552868101516001600160a01b0316878601528501518585015260609093019290850190600101611c22565b5091979650505050505050565b602081526000610aa26020830184611b6d565b60208082526032908201527f4552433732313a207472616e7366657220746f206e6f6e20455243373231526560408201527131b2b4bb32b91034b6b83632b6b2b73a32b960711b606082015260800190565b6020808252818101527f4f776e61626c653a2063616c6c6572206973206e6f7420746865206f776e6572604082015260600190565b60208082526031908201527f4552433732313a207472616e736665722063616c6c6572206973206e6f74206f6040820152701ddb995c881b9bdc88185c1c1c9bdd9959607a1b606082015260800190565b60008219821115611d6557611d65611e2b565b500190565b600082611d7957611d79611e41565b500490565b600082821015611d9057611d90611e2b565b500390565b60005b83811015611db0578181015183820152602001611d98565b83811115610af95750506000910152565b600181811c90821680611dd557607f821691505b60208210811415611df657634e487b7160e01b600052602260045260246000fd5b50919050565b6000600019821415611e1057611e10611e2b565b5060010190565b600082611e2657611e26611e41565b500690565b634e487b7160e01b600052601160045260246000fd5b634e487b7160e01b600052601260045260246000fd5b634e487b7160e01b600052604160045260246000fd5b6001600160e01b031981168114610d0e57600080fdfea2646970667358221220e8314f40fd6fafd0b14beb3ab540b97bbf65a7b2f4c3ff09444debc8a35ffc0164736f6c63430008040033",
  "devdoc": {
    "kind": "dev",
    "methods": {
      "approve(address,uint256)": {
        "details": "See {IERC721-approve}."
      },
      "balanceOf(address)": {
        "details": "See {IERC721-balanceOf}."
      },
      "getApproved(uint256)": {
        "details": "See {IERC721-getApproved}."
      },
      "isApprovedForAll(address,address)": {
        "details": "See {IERC721-isApprovedForAll}."
      },
      "name()": {
        "details": "See {IERC721Metadata-name}."
      },
      "owner()": {
        "details": "Returns the address of the current owner."
      },
      "ownerOf(uint256)": {
        "details": "See {IERC721-ownerOf}."
      },
      "renounceOwnership()": {
        "details": "Leaves the contract without owner. It will not be possible to call `onlyOwner` functions anymore. Can only be called by the current owner. NOTE: Renouncing ownership will leave the contract without an owner, thereby removing any functionality that is only available to the owner."
      },
      "safeTransferFrom(address,address,uint256)": {
        "details": "See {IERC721-safeTransferFrom}."
      },
      "safeTransferFrom(address,address,uint256,bytes)": {
        "details": "See {IERC721-safeTransferFrom}."
      },
      "setApprovalForAll(address,bool)": {
        "details": "See {IERC721-setApprovalForAll}."
      },
      "supportsInterface(bytes4)": {
        "details": "See {IERC165-supportsInterface}."
      },
      "symbol()": {
        "details": "See {IERC721Metadata-symbol}."
      },
      "tokenURI(uint256)": {
        "details": "See {IERC721Metadata-tokenURI}."
      },
      "transferFrom(address,address,uint256)": {
        "details": "See {IERC721-transferFrom}."
      },
      "transferOwnership(address)": {
        "details": "Transfers ownership of the contract to a new account (`newOwner`). Can only be called by the current owner."
      }
    },
    "version": 1
  },
  "userdoc": {
    "events": {
      "MarketItemCreated(uint256,address,uint256)": {
        "notice": "EVENTS *"
      }
    },
    "kind": "user",
    "methods": {
      "constructor": {
        "notice": "CONSTRUCTOR *"
      },
      "createToken(string,uint256)": {
        "notice": "MAIN METHODS *"
      },
      "tokenIds()": {
        "notice": "VARIABLES *"
      }
    },
    "version": 1
  },
  "storageLayout": {
    "storage": [
      {
        "astId": 6087,
        "contract": "contracts/NFTMarketplace.sol:NFTMarketplace",
        "label": "_name",
        "offset": 0,
        "slot": "0",
        "type": "t_string_storage"
      },
      {
        "astId": 6089,
        "contract": "contracts/NFTMarketplace.sol:NFTMarketplace",
        "label": "_symbol",
        "offset": 0,
        "slot": "1",
        "type": "t_string_storage"
      },
      {
        "astId": 6093,
        "contract": "contracts/NFTMarketplace.sol:NFTMarketplace",
        "label": "_owners",
        "offset": 0,
        "slot": "2",
        "type": "t_mapping(t_uint256,t_address)"
      },
      {
        "astId": 6097,
        "contract": "contracts/NFTMarketplace.sol:NFTMarketplace",
        "label": "_balances",
        "offset": 0,
        "slot": "3",
        "type": "t_mapping(t_address,t_uint256)"
      },
      {
        "astId": 6101,
        "contract": "contracts/NFTMarketplace.sol:NFTMarketplace",
        "label": "_tokenApprovals",
        "offset": 0,
        "slot": "4",
        "type": "t_mapping(t_uint256,t_address)"
      },
      {
        "astId": 6107,
        "contract": "contracts/NFTMarketplace.sol:NFTMarketplace",
        "label": "_operatorApprovals",
        "offset": 0,
        "slot": "5",
        "type": "t_mapping(t_address,t_mapping(t_address,t_bool))"
      },
      {
        "astId": 7104,
        "contract": "contracts/NFTMarketplace.sol:NFTMarketplace",
        "label": "_tokenURIs",
        "offset": 0,
        "slot": "6",
        "type": "t_mapping(t_uint256,t_string_storage)"
      },
      {
        "astId": 400,
        "contract": "contracts/NFTMarketplace.sol:NFTMarketplace",
        "label": "_owner",
        "offset": 0,
        "slot": "7",
        "type": "t_address"
      },
      {
        "astId": 9943,
        "contract": "contracts/NFTMarketplace.sol:NFTMarketplace",
        "label": "tokenIds",
        "offset": 0,
        "slot": "8",
        "type": "t_struct(Counter)7853_storage"
      },
      {
        "astId": 9946,
        "contract": "contracts/NFTMarketplace.sol:NFTMarketplace",
        "label": "itemsBurned",
        "offset": 0,
        "slot": "9",
        "type": "t_struct(Counter)7853_storage"
      },
      {
        "astId": 9951,
        "contract": "contracts/NFTMarketplace.sol:NFTMarketplace",
        "label": "idToMarketItem",
        "offset": 0,
        "slot": "10",
        "type": "t_mapping(t_uint256,t_struct(MarketItem)9958_storage)"
      }
    ],
    "types": {
      "t_address": {
        "encoding": "inplace",
        "label": "address",
        "numberOfBytes": "20"
      },
      "t_address_payable": {
        "encoding": "inplace",
        "label": "address payable",
        "numberOfBytes": "20"
      },
      "t_bool": {
        "encoding": "inplace",
        "label": "bool",
        "numberOfBytes": "1"
      },
      "t_mapping(t_address,t_bool)": {
        "encoding": "mapping",
        "key": "t_address",
        "label": "mapping(address => bool)",
        "numberOfBytes": "32",
        "value": "t_bool"
      },
      "t_mapping(t_address,t_mapping(t_address,t_bool))": {
        "encoding": "mapping",
        "key": "t_address",
        "label": "mapping(address => mapping(address => bool))",
        "numberOfBytes": "32",
        "value": "t_mapping(t_address,t_bool)"
      },
      "t_mapping(t_address,t_uint256)": {
        "encoding": "mapping",
        "key": "t_address",
        "label": "mapping(address => uint256)",
        "numberOfBytes": "32",
        "value": "t_uint256"
      },
      "t_mapping(t_uint256,t_address)": {
        "encoding": "mapping",
        "key": "t_uint256",
        "label": "mapping(uint256 => address)",
        "numberOfBytes": "32",
        "value": "t_address"
      },
      "t_mapping(t_uint256,t_string_storage)": {
        "encoding": "mapping",
        "key": "t_uint256",
        "label": "mapping(uint256 => string)",
        "numberOfBytes": "32",
        "value": "t_string_storage"
      },
      "t_mapping(t_uint256,t_struct(MarketItem)9958_storage)": {
        "encoding": "mapping",
        "key": "t_uint256",
        "label": "mapping(uint256 => struct NFTMarketplace.MarketItem)",
        "numberOfBytes": "32",
        "value": "t_struct(MarketItem)9958_storage"
      },
      "t_string_storage": {
        "encoding": "bytes",
        "label": "string",
        "numberOfBytes": "32"
      },
      "t_struct(Counter)7853_storage": {
        "encoding": "inplace",
        "label": "struct Counters.Counter",
        "members": [
          {
            "astId": 7852,
            "contract": "contracts/NFTMarketplace.sol:NFTMarketplace",
            "label": "_value",
            "offset": 0,
            "slot": "0",
            "type": "t_uint256"
          }
        ],
        "numberOfBytes": "32"
      },
      "t_struct(MarketItem)9958_storage": {
        "encoding": "inplace",
        "label": "struct NFTMarketplace.MarketItem",
        "members": [
          {
            "astId": 9953,
            "contract": "contracts/NFTMarketplace.sol:NFTMarketplace",
            "label": "tokenId",
            "offset": 0,
            "slot": "0",
            "type": "t_uint256"
          },
          {
            "astId": 9955,
            "contract": "contracts/NFTMarketplace.sol:NFTMarketplace",
            "label": "owner",
            "offset": 0,
            "slot": "1",
            "type": "t_address_payable"
          },
          {
            "astId": 9957,
            "contract": "contracts/NFTMarketplace.sol:NFTMarketplace",
            "label": "price",
            "offset": 0,
            "slot": "2",
            "type": "t_uint256"
          }
        ],
        "numberOfBytes": "96"
      },
      "t_uint256": {
        "encoding": "inplace",
        "label": "uint256",
        "numberOfBytes": "32"
      }
    }
  }
}